:10000000B7C00000EDC00000EBC00000E9C0000078
:10001000E7C00000E5C00000E3C00000E1C0000050
:10002000DFC00000DDC000000C94E02D0C94AB2E6E
:10003000D7C00000D5C00000D3C00000D1C0000070
:10004000CFC000009AC60000CBC00000C9C00000AD
:10005000C7C00000C5C00000C3C00000C1C0000090
:10006000BFC000000C942C13BBC00000B9C000003E
:10007000B7C00000B5C00000B3C00000B1C00000B0
:10008000A0C60000ADC00000ABC00000A9C00000C9
:10009000A7C00000A5C00000A3C00000A1C00000D0
:1000A0009FC000009DC000009BC00000E60F2B1009
:1000B000FA0FEC0F2B102B102B101A102B102B10EB
:1000C0002B102B102B102B102B102B101A102B1069
:1000D0001A101A100D2F2F2F13302F2F1330712FAE
:1000E000932F1330E52FF72F1C034F00700074007F
:1000F0006F00740075006E00650020004C00440025
:10010000000018034F00700074006F007400750049
:100110006E00650020004C00440000000403090448
:1001200009023E0002010040FA0904000001020237
:100130000100052400A00104240206052406000194
:10014000070582030800FF09040100020A000000FD
:1001500007050402100005070583021000051201BF
:10016000A00102000008EB03182010000102DC01CE
:1001700011241FBECFEFDAE0DEBFCDBF04B603FE11
:1001800018C08091180490911904A0911A04B0919C
:100190001B048A3C9C4AA244BC4D59F4109218049A
:1001A0001092190410921A0410921B04E0E0F8E374
:1001B000099511E0A0E0B1E0EAEAF9E602C0059095
:1001C0000D92A432B107D9F724E0A4E2B1E001C056
:1001D0001D92A831B207E1F70E94C1300C94D334CC
:1001E0000FCF21E041E06091000180E3CAD082E0BE
:1001F000C7C1BC016C7F7F7194FF02C06160706EEB
:10020000882777FD8095982F0E94D83120E030E034
:1002100040E85DE30E94CA320C94092820917701DE
:100220008091720190E0922BE4DF61E070E00E9427
:10023000832890936F0180936E0120916E0130911D
:100240006F018091920190919301281739077CF4F6
:1002500020916E0130916F0180917C0190917D0120
:1002600041E0821793070CF440E0842F01C081E045
:100270008093570108950BD16091020180E36ED005
:1002800081E332D149D19091010198239093770174
:100290005DD1809372011BD182E072D18111BECFFA
:1002A0000895ACC08CD08091A001813051F4809130
:1002B000980190919901883E23E0920710F40196ED
:1002C0000DC08091A001813071F4809198019091CE
:1002D0009901883E934038F088EE93E0909399011D
:1002E0008093980104C01092990110929801209176
:1002F000A001809198019091990121110AC020914B
:100300009B0130919C012115310519F021503109D3
:100310000CC0883E23E0920760F020919B01309151
:100320009C01232B31F423E030E030939C01209397
:100330009B01883E934018F010929D010895809192
:100340009B0190919C01892B11F081E001C082E01A
:1003500080939D01089573C08ECF43CFCF93DF93D9
:1003600000D0CDB7DEB76A8389839CD08981BCD0A9
:100370006A81862FB9D0ABD00F900F90DF91CF91CB
:1003800091C0CF93DF9300D000D0CDB7DEB72C83E0
:100390004B836A83898386D08981A6D06A81862F20
:1003A000A3D02C814B81222311F0842F9DD08FD09C
:1003B0000F900F900F900F90DF91CF9173C072D07C
:1003C00081EA92D0C3D083D086E0DAC01F93CF9366
:1003D000DF931F92CDB7DEB7182F64D080EA84D0A8
:1003E000812F82D05FD081EA7FD0B0D089836FD057
:1003F00089810F90DF91CF911F9108950F931F93E3
:10040000CF93DF93D82F811102C010927101C0E009
:1004100001E08D2FDBDF182F86E0B2D0811103C001
:10042000C23020F001C0C5E000937101CF5FC5303C
:1004300080F3812FDF91CF911F910F9108951F932A
:10044000CF93DF931F92CDB7DEB7182F69832AD0E1
:1004500080EA4AD0812F48D06981862F45D037D095
:1004600086E08ED0882369F08FE39CE90197F1F74D
:1004700000C00000812FC2DF182F86E081D0812FBD
:1004800001C080E00F90DF91CF911F91089588E423
:100490008093B8001092B90084E08093BC00109261
:1004A000BB00089581E08093A20184EA8093BC00A0
:1004B00088EE93E02091BC0027FD04C0009721F056
:1004C0000197F8CF892B11F41092A201089584E9C5
:1004D0008093BC000895ECEBF0E080818B7E8083FC
:1004E00080818460808308959091A201992399F07E
:1004F0008093BB0084E88093BC0088EE93E0209159
:10050000BC0027FD04C0009721F00197F8CF892B8C
:1005100011F41092A20108958091A2018823A1F004
:1005200084EC8093BC0088EE93E02091BC0027FD12
:1005300004C0009721F00197F8CF892B11F4109295
:10054000A2018091BB00089580E008958091A201EE
:100550008823A1F084E88093BC0088EE93E020918A
:10056000BC0027FD04C0009721F00197F8CF892B2C
:1005700011F41092A2018091BB00089580E00895CB
:10058000982F8091A201923019F0963021F00895B1
:1005900080939A0108958093A0010895E0915901F4
:1005A000F0915A01AFEFBFE09B01AC010E94D8333C
:1005B0009F0140E050E00E94B033CA01B9010E949F
:1005C000D8310E942D330E94A531CB01089580932C
:1005D0007C0090FF04C080917B00806203C080910A
:1005E0007B008F7D80937B0080917A008064809374
:1005F0007A0080917A0084FFFCCF80917A0080613C
:1006000080937A008091780090917900089587E82E
:1006100080937A008098EEE7F0E0808181608083AB
:10062000819880818260808380E490E0D0DF909325
:10063000AC018093AB0181E490E0C9DF9093AE01FF
:100640008093AD010895806490E0C1CF80E490E094
:10065000BEDF9093A6018093A501A0916C01B0919B
:100660006D012091690130916A01A21BB30B9C01BD
:100670000E94D23320E034E040E050E00E94B033EA
:100680002093A7013093A8014093A9015093AA0198
:100690008091690190916A01820F931F90937F016D
:1006A00080937E0108952091A3013091A4016217E7
:1006B000730720F06091A3017091A401811104C01F
:1006C00080E090E00C948934089580E090E00E94EE
:1006D000763490935A01809359011092560180917B
:1006E000590190915A01019659F020915901309188
:1006F0005A018091A3019091A4018217930758F4A5
:100700008091A3019091A40190935A018093590183
:1007100081E0809356010895813325E7920710F018
:1007200080E395E7BC0188E590E00C94893488E586
:1007300090E00E9476349093A4018093A30180916D
:10074000590190915A01019639F08091A30190913D
:10075000A4018133954730F084E692E79093A40199
:100760008093A3010895811134C080916C01909110
:100770006D018F3F9F402CF480916C0190916D0131
:1007800002C08FEF9FE090936D0180936C01809188
:10079000690190916A018230904F2CF0809169013B
:1007A00090916A0102C081E090EF90936A0180937A
:1007B000690160916C0170916D0188E090E00E9488
:1007C00089346091690170916A018CE090E00C9429
:1007D0008934089588E090E00E94763490936D010A
:1007E00080936C018CE090E00E94763490936A01D3
:1007F0008093690110925F011092640180916C01F5
:1008000090916D01019631F48FEF9FE090936D010F
:1008100080936C018091690190916A01019631F495
:1008200081E090EF90936A018093690180916C015F
:1008300090916D01019669F080916C0190916D012C
:100840008115904134F480916C0190916D01892B58
:1008500049F48FEF9FE090936D0180936C0181E0EC
:10086000809364018091690190916A01019639F049
:100870008091690190916A018130904F4CF481E040
:1008800090EF90936A018093690181E080935F010A
:1008900080915F01811104C080916401882311F06F
:1008A00080E061CF08950F931F93CF93DF938C0166
:1008B000C8EFD3E0CE010E946E34F80181938F011E
:1008C0002196C115F4E0DF07A9F7DF91CF911F91C1
:1008D0000F9108950F931F93CF93DF938C01C8EF6F
:1008E000D3E0F80161918F01CE010E947B34219603
:1008F000C115F4E0DF07A9F7DF91CF911F910F91A8
:10090000089586E40C94F6268091C401803529F080
:1009100066E080E190E00C947B34089582E190E001
:100920000E946E34813411F40C9428270C943D27D6
:1009300080919E01813411F461E401C06FEF82E186
:1009400090E00C947B348CE090E00E946E348F3FFA
:1009500011F480E501C086E40C94F626E8DEB5DEED
:1009600039DFF1DFCEDFDACF66E08CE090E00E9485
:100970007B341092C4012EDF0E943D2786E40C9444
:10098000F6266091B7017091B80184E390E00E946F
:1009900089346091BD017091BE0188E390E00E94AE
:1009A00089346091B9017091BA018CE390E00E94A2
:1009B00089346091BB017091BC0180E490E00E9499
:1009C00089346091B3017091B40184E490E00E9495
:1009D00089346091BF017091C00188E490E00E9469
:1009E00089346091AF017091B0018CE490E00E9475
:1009F00089346091C1017091C20180E590E00E944C
:100A000089346091B5017091B60184E590E00C9451
:100A100089344F925F926F927F928F929F92AF92A2
:100A2000BF92CF92DF92EF92FF920F931F93CF93DB
:100A3000DF9384E390E00E9476342C019093B80118
:100A40008093B70188E390E00E9476343C01909354
:100A5000BE018093BD018CE390E00E9476344C018E
:100A60009093BA018093B90180E490E00E947634BB
:100A70005C019093BC018093BB0184E490E00E94F0
:100A800076346C019093B4018093B30188E490E0D4
:100A90000E9476347C019093C0018093BF018CE466
:100AA00090E00E9476348C019093B0018093AF0166
:100AB00080E590E00E947634EC019093C20180932F
:100AC000C10184E590E00E9476349093B601809352
:100AD000B50110928E0145204094B1F067206094DA
:100AE00099F08920809481F0AB20A09469F0CD200A
:100AF000C09451F0EF20E09439F00F3F1F4F21F0E8
:100B0000219611F0019649F580E091E09093B801AB
:100B10008093B7019093BE018093BD019093BA0179
:100B20008093B9019093BC018093BB019093B40171
:100B30008093B3019093C0018093BF019093B00163
:100B40008093AF019093C2018093C1019093B6014D
:100B50008093B50181E080938E01DF91CF911F9149
:100B60000F91FF90EF90DF90CF90BF90AF909F904C
:100B70008F907F906F905F904F9008951092250115
:100B8000109224010895BC0180E090E00E94D631CB
:100B900020E030E040E251E40E943D3120E030E0CE
:100BA00040E251E40E94D4300C9409288091240141
:100BB0009091250108959F92AF92BF92CF92DF92BC
:100BC000EF92FF920F931F93CF93DF93962EA091F6
:100BD0002401B09125019D0143E0369527954A9562
:100BE000E1F7FC01E20FF11D208130E040E050E030
:100BF00060E070E080E090E000E20E94E833C22F05
:100C0000C32ED42EE52EF62ED72F5C01218130E0A5
:100C100040E050E060E070E080E090E008E10E9499
:100C2000E833C22BC32AD42AE52AF62AD72BA82ACE
:100C3000B92A8481C82B228130E040E050E060E096
:100C400070E080E090E000E10E94E833C22BC32A0C
:100C5000D42AE52AF62AD72BA82AB92A238130E0FC
:100C600040E050E060E070E080E090E008E00E944A
:100C7000E833C22BC32AD42AE52AF62AD72B0A2F17
:100C8000077010E0085E1F4F2C2F3C2D4D2D5E2D60
:100C90006F2D7D2F8A299B290E94E833E92DF0E0F2
:100CA000AE0FBF1FB0932501A093240100E410E014
:100CB0000E1B1F0B0E940334B901CA01DF91CF91B3
:100CC0001F910F91FF90EF90DF90CF90BF90AF906A
:100CD0009F900895AF92BF92CF92DF92EF92FF92D2
:100CE0000F931F93CF93DF93EC017B015A016901AE
:100CF00068E061DFF70160836AE0CE015CDFF50147
:100D0000608366E0CE0157DFF601608360E1CE01CB
:100D100052DFF80171836083DF91CF911F910F91B2
:100D2000FF90EF90DF90CF90BF90AF90089520910B
:100D3000240130912501280F311D30932501209386
:100D4000240108953F98479857985F9852985A9A67
:100D500053985B9A849A8C98549A5C98569A5E98A9
:100D6000249A2C98259A2D98269A2E983E9A469841
:100D7000089582E080BB899808951F920F920FB664
:100D80000F9211242F933F934F935F936F937F9311
:100D90008F939F93AF93BF93EF93FF930E94D325BD
:100DA000FF91EF91BF91AF919F918F917F916F9143
:100DB0005F914F913F912F910F900FBE0F901F9019
:100DC00018951F920F920FB60F9211242F933F93F5
:100DD0004F935F936F937F938F939F93AF93BF9343
:100DE000EF93FF930E94D925FF91EF91BF91AF91AF
:100DF0009F918F917F916F915F914F913F912F9133
:100E00000F900FBE0F901F901895109290008DE0DC
:100E10008093910080E094E09093C4028093C30299
:100E200084E190E09093C0028093BF028DE093E054
:100E30009093990080939800E1E7F0E080818260D0
:100E4000808308950F931F9380916F008D7F80930F
:100E50006F008091C1029091C2028034910589F0A7
:100E600038F48130910589F0089779F48AE00EC052
:100E7000811521E0920739F08115944031F48DE01D
:100E800005C08BE003C08CE001C089E08093810045
:100E90002091C1023091C20240E050E060E074E273
:100EA00084EF90E00E948E33CA01B9010091BD0227
:100EB0001091BE02980140E050E00E948E333093C2
:100EC00089002093880080916F00826080936F007A
:100ED0001F910F91089510928000B4DFEFE6F0E0CB
:100EE0008081826080830895F6DF8FCF8091C40176
:100EF000863459F0803591F481E090E09093C202FD
:100F00008093C10288E893E111C080E091E0909362
:100F1000C2028093C10283E191E008C080E094E0C6
:100F20009093C2028093C10281E090E09093BE0250
:100F30008093BD0287CF8091BF029091C002089537
:100F40002C9A2D9A089580917E0190917F01209195
:100F5000260197FD0DC0211106C0F2DF2C9A2D98B5
:100F600081E08093260180917E0190917F010EC0E7
:100F7000222329F0E5DF2C982D9A109226018091EA
:100F80007E0190917F019195819591099C01222785
:100F90003F703EBD0DB407FEFDCF8EBD0DB407FE04
:100FA000FDCF5C9A5C9880918F01813009F489981B
:100FB00080918F01811101C0899A0895209A289A01
:100FC00084B1866084B923982B9A8DB581608DBDDC
:100FD000209880E58CBDB7CF811101C0B4CF0895B2
:100FE0001092C5011092C7011092C6011092C8015B
:100FF0001092CA011092C9011092CB018EE4809325
:10100000CC018FE48093CD0195E49093CE01909331
:10101000CF0190E59093D00192E59093D101809318
:10102000D2018DE48093D3011092D4011092D501A6
:101030001092D6018FEF9FE0A0E0B0E08093D7013F
:101040009093D801A093D901B093DA0181E090EF99
:10105000AFEFBFEF8093DB019093DC01A093DD0144
:10106000B093DE018FE49BE1A0E0B0E08093DF016C
:101070009093E001A093E101B093E20181EB94EE43
:10108000AFEFBFEF8093E3019093E401A093E501FC
:10109000B093E60181E48093E70184E190E09093CE
:1010A000E9018093E80120E931E03093EB012093DE
:1010B000EA011092ED011092EC011092EF011092F2
:1010C000EE011092F1011092F0011092F3011092D2
:1010D000F2019093F5018093F4019093F7018093CE
:1010E000F6019093F9018093F8019093FB018093AE
:1010F000FA011092FD011092FC019093FF01809380
:10110000FE01109200020895BC0180E090E00E9470
:10111000D63120E030E046E954E40E943D3120E041
:1011200030E040E951E40E94D4300C94FD27BC012A
:1011300080E090E00E94D63120E030E040E752E4C9
:101140000E943D3120E030E849E054E40E94D43070
:1011500020E030E048EC52E40E94CA320E94A531FF
:101160001DCAEF92FF920F931F93CF93DF938C01D1
:1011700060E121DDCB01C8DFEC0160E1C8011BDDCE
:10118000CB01D5DF7C016AE0C80115DDBE01C701D6
:10119000DF91CF911F910F91FF90EF9008956F9283
:1011A0007F928F929F92AF92BF92CF92DF92EF92F7
:1011B000FF920F931F93CF93DF938C0190900002C7
:1011C000892D90E09093020280930102C0E0D0E06C
:1011D0009CE5892E27E1722EC91508F040C06AE00F
:1011E000C801E9DCCB01CFDC8C9E70018D9EF00C38
:1011F000112497012F5F3D4F7901F9019683858373
:1012000065E0C801D8DC6E5F7F4FF70174836383AC
:10121000612C97012D5F3F4F79017C9E60017D9E7F
:10122000D00C1124F70180819181A62CB12CA81635
:10123000B90698F4AC0CBD1CAA0CBB1CAA0CBB1CB8
:10124000C5018B5F9D4F5C01C8018BDFF501638396
:101250007483858396836394E5CF2196BDCFE09117
:101260006002F0916102E15024E0E29FF00111245C
:10127000EF5FFD4F2185328580910A0290910B022C
:101280008217930714F481E001C082E08093030287
:10129000DF91CF911F910F91FF90EF90DF90CF9052
:1012A000BF90AF909F908F907F906F9008951F9305
:1012B000CF93DF93EC0168E07EDC6093C5016AE0C8
:1012C000CE0179DC7093C7016093C60166E0CE0160
:1012D00072DC6093C80160E1CE016DDC7093CA01DD
:1012E0006093C90168E0CE0166DC6093CB0168E0E1
:1012F000CE0161DC6093CC0168E0CE015CDC6093E0
:10130000CD0168E0CE0157DC6093CE0168E0CE01EC
:1013100052DC6093CF0168E0CE014DDC6093D001D8
:1013200068E0CE0148DC6093D10168E0CE0143DC87
:101330006093D20168E0CE013EDC6093D30168E0A7
:10134000CE0139DC6093D40168E0CE0134DC6093D7
:10135000D50162E0CE012FDC6093D6016AE0CE01B8
:101360002ADC9B01AC01A4E6B0E00E94D83316D978
:10137000AA2797FDA095BA2F8093D7019093D80103
:10138000A093D901B093DA016AE0CE0114DC9B018D
:10139000AC01ACE9BFEF0E94E43300D9AA2797FD66
:1013A000A095BA2F8093DB019093DC01A093DD011F
:1013B000B093DE016AE0CE01FEDB9B01AC01A4E646
:1013C000B0E00E94D833EAD8AA2797FDA095BA2F9B
:1013D0008093DF019093E001A093E101B093E201DB
:1013E0006AE0CE01E8DB9B01AC01ACE9BFEF0E94F3
:1013F000E433D4D8AA2797FDA095BA2F8093E301B0
:101400009093E401A093E501B093E60167E0CE017B
:10141000D2DB6093E70168E0CE01CDDB24E630E06B
:10142000C901861B970B9093E9018093E801809195
:10143000C801823008F43FC06AE0CE01BCDB709383
:10144000EB016093EA016AE0CE01B5DB7093ED0138
:101450006093EC016AE0CE01AEDB7093EF01609324
:10146000EE016AE0CE01A7DB7093F1016093F00119
:101470006AE0CE01A0DB7093F3016093F20169E0B2
:10148000CE0199DB7093F5016093F40169E0CE0120
:1014900092DB7093F7016093F60169E0CE018BDB7C
:1014A0007093F9016093F80169E0CE0184DB7093D9
:1014B000FB016093FA018091C801833070F06AE00B
:1014C000CE0179DB7093FD016093FC0169E0CE01F0
:1014D00072DB7093FF016093FE011091CB0166DB1C
:1014E00048E0149F90011124281B390B1216130693
:1014F00014F4822F1CDC64E0CE015DDB6F5F60932F
:101500000002CE01DF91CF911F9149CE382FFC010F
:1015100080E090E02E2F231B2617C8F4219182270C
:10152000282F22952827022E269526952025022E43
:10153000269520252770082E892F26950794279514
:10154000902D82270694279590258227E3CF089532
:101550008F929F92AF92BF92CF92DF92EF92FF92C3
:101560000F931F93CF93DF93CDB7DEB75A01CDB65C
:10157000DEB6862E912C740124E0E20EF11C2DB70C
:101580003EB72E193F090FB6F8943EBF0FBE2DBFD0
:101590000DB71EB70F5F1F4F382FD801FC012E2F3C
:1015A000231B261718F421912D93F9CFAFDF8093D9
:1015B000270190932801F801E80DF91D808391839C
:1015C0008DE082838AE08383F8949501A70161E02E
:1015D00070E0C8010E943C3478940FB6F894DEBEE7
:1015E0000FBECDBEDF91CF911F910F91FF90EF9075
:1015F000DF90CF90BF90AF909F908F9008959A0109
:10160000F894462F50E061E070E00E943C347894FA
:101610000895DF92EF92FF920F931F93CF93DF9382
:1016200000D0CDB7DEB7E82ED92EF62E0DB71EB7F7
:1016300049835A830E946B15262F65E06F0D8DB785
:101640009EB7861B91090FB6F8949EBF0FBE8DBF43
:1016500001967E2DDC01EE2DFD2D49815A813E2F14
:10166000371B3F1518F431913D93F9CFFC01EF0D75
:10167000F11D2083209194013091950131832091B7
:1016800094013091950122832091790130917A0162
:1016900033832091790130917A01248359DF0FB689
:1016A000F8941EBF0FBE0DBF0F900F90DF91CF912A
:1016B0001F910F91FF90EF90DF90089564E082E01A
:1016C0000E94591580E00895F8942FEF87EA91E67B
:1016D000215080409040E1F700C000008AEC9CEA75
:1016E000A2E4BCED8093180490931904A0931A040B
:1016F000B0931B042CE088E190E00FB6F894A89515
:10170000809360000FBE20936000FFCFEF92FF92A6
:101710000F931F93CF93DF9300D000D0CDB7DEB7E8
:101720008C017A01F3DE892B21F08091C5028111B1
:1017300020C0F801838190E0582F44272481422B58
:10174000618170E0762F66272281622B21E081E0A3
:101750000E94DD2319821A821B821C8229E52983BB
:101760009A838B83A70163E0CE010196F1DE80E0CE
:1017700001C081E00F900F900F900F90DF91CF91FB
:101780001F910F91FF90EF900895C0DE892B21F0FB
:101790008091C502811101C097DF81E00895FF9219
:1017A0000F931F93CF93DF9300D000D01F92CDB73C
:1017B000DEB78C01F62E4C835D83A8DE4C815D8103
:1017C000892B21F08091C50281112AC0F801818105
:1017D000873769F4828190E0982F88272381822BB4
:1017E00090937F0180937E010E94122417C082375C
:1017F00089F481E4898380917E0190917F019A83AD
:1018000080917E0190917F018B8363E0CE010196F0
:101810009FDE04C063E08F2D0E94591580E001C057
:1018200081E00F900F900F900F900F90DF91CF916C
:101830001F910F91FF9008950F931F93CF93DF9304
:1018400000D000D0CDB7DEB7FC01862F8A01918190
:10185000973741F5848190E0982F88272581822B46
:10186000909391018093900120919001309191018A
:1018700080918C0190918D01281739077CF020917F
:10188000900130919101809181019091820141E01C
:10189000821793070CF040E0842F01C081E0809311
:1018A000730129C0923721F580919E01843481F41F
:1018B00040916E0150916F0160917E0170917F01A6
:1018C00021E081E00E94DD239093910180939001BB
:1018D000809190019091910120E5298324E42A834D
:1018E0009B838C83A80164E0CE01019631DE03C0A6
:1018F00063E00E9459150F900F900F900F90DF91A9
:10190000CF911F910F910895FF920F931F93CF9343
:10191000DF93CDB7DEB729970FB6F894DEBF0FBEC1
:10192000CDBF8C01F62E48875987F0DD4885598553
:10193000892B21F08091C5028111ADC0F80183810E
:1019400022812B3409F4A0C038F4243409F498C05F
:10195000283409F499C09AC0243509F448C02535C3
:1019600021F02C3409F092C020C0F8019181973702
:1019700059F4848190E0982F88272581822B9093B9
:101980006601809365017AC0923709F07FC090E5C7
:1019900099832A838B8380916501909166019C8352
:1019A00080916501909166011FC0F8019181973780
:1019B00059F4848190E0982F88272581822B909379
:1019C0006101809360015AC0923709F05FC090E5D1
:1019D00099832A838B8380916001909161019C831C
:1019E00080916001909161018D8365E044C0F801B0
:1019F0008181873731F5668170E0762F6627878190
:101A0000682BB4E0660F771FBA95E1F7848190E008
:101A1000982F88273581832B04E0880F991F0A951A
:101A2000E1F72F83488759870E947B2580E58983CA
:101A30002F812A834885598562E0CE010196E9DD30
:101A40001DC0823719F580E589832A838091920130
:101A5000909193019B8380919201909193018C834B
:101A600080917C0190917D019D8380917C0190917A
:101A70007D018E8366E0CE0101966ADD80E00CC0B8
:101A80006F2DC801D9DEFACF62E001C063E08F2D6F
:101A90000E945915F3CF81E029960FB6F894DEBF66
:101AA0000FBECDBFDF91CF911F910F91FF90089591
:101AB000EF92FF920F931F93CF93DF9300D0CDB798
:101AC000DEB78C017A0122DD892B21F08091C502DD
:101AD00081110FC0F801638182810E94AB019AE5F8
:101AE00099838A83A70162E0CE01019631DD80E00F
:101AF00001C081E00F900F90DF91CF911F910F9166
:101B0000FF90EF900895EF92FF920F931F93CF9362
:101B1000DF9300D0CDB7DEB78C017A01F7DC892BDB
:101B200021F08091C50281110EC0F80182810E94CE
:101B300051019AE599838A83A70162E0CE0101965B
:101B400007DD80E001C081E00F900F90DF91CF9121
:101B50001F910F91FF90EF900895FF920F931F93A5
:101B6000CF93DF931F92CDB7DEB78A01CFDC892BED
:101B700021F08091C50281111AC0A80161E08DE0B9
:101B800091E03DDDF12C8F2D0E9451018983A80148
:101B900061E0CE01019633DDF3948FEFF812F3CFBD
:101BA000A80162E081E291E02ADD80E001C081E0ED
:101BB0000F90DF91CF911F910F91FF900895DF92C9
:101BC000EF92FF920F931F93CF93DF9300D000D03B
:101BD0001F92CDB7DEB78C01D62E7A0197DC892B08
:101BE00021F08091C502811180C0F80152812481C9
:101BF00030E0722F66278581682B83E489835A83BE
:101C000093819B8341814C835C3499F120F453345C
:101C100009F444C059C05D3419F05535A1F054C0E1
:101C2000473749F4913409F053C080E00E945303D0
:101C30000E94650303C0913409F04AC080915901A4
:101C400090915A0147C0473769F4913409F040C078
:101C500070936D0160936C0180E00E94B3030E9459
:101C6000EA0302C09134A1F580916C0190916D015D
:101C700031C0473761F4913459F570936A0160932C
:101C8000690180E00E94B3030E94EA0302C091341C
:101C9000F9F48091690190916A011CC0473769F499
:101CA0007093A4016093A3018091A3019091A4017A
:101CB0000E948C030E94970302C0423749F480912E
:101CC000A3019091A40106C0A70163E08D2DF1D678
:101CD00080E090E09C838D83A70165E0CE010196B2
:101CE00037DC0E94772580E001C081E00F900F90E3
:101CF0000F900F900F90DF91CF911F910F91FF9058
:101D0000EF90DF900895CF92DF92EF92FF920F93C2
:101D10001F93CF93DF93CDB7DEB762970FB6F894DA
:101D2000DEBF0FBECDBF7C01C62E8A01EFDB892B43
:101D300021F08091C50281112FC0F701D180F2E519
:101D4000DF1639F087E5D81221C0C70102960E943C
:101D50006A04CE010B960E94530489E48983DA82D7
:101D60008B858B838C858C838D858D838E858E83EF
:101D70008F858F8388898887898989878A898A87D7
:101D8000A8016AE0CE010196E3DB04C0A80163E08C
:101D90008C2D8FD680E001C081E062960FB6F8945A
:101DA000DEBF0FBECDBFDF91CF911F910F91FF908E
:101DB000EF90DF90CF900895DF92EF92FF920F9314
:101DC0001F93CF93DF93CDB7DEB764970FB6F89428
:101DD000DEBF0FBECDBF8C01D62E7A0197DB892BDB
:101DE00021F08091C5028111B2C0F801818187374D
:101DF00009F062C0838190E0982F88272481822B8C
:101E00009093B8018093B701858190E0982F88273F
:101E10002681822B9093BE018093BD01878190E043
:101E2000982F88272085822B9093BA018093B9013F
:101E3000818590E0982F88272285822B9093BC0182
:101E40008093BB01838590E0982F88272485822B7F
:101E50009093B4018093B301858590E0982F8827F3
:101E60002685822B9093C0018093BF01878590E0E7
:101E7000982F88272089822B9093B0018093AF01FF
:101E8000818990E0982F88272289822B9093C20124
:101E90008093C101838990E0982F88272489822B21
:101EA0009093B6018093B5010E94C1044AD70E9465
:101EB000331D0E9477250AC0823719F40E94090554
:101EC00005C0A70163E08D2DF4D541C08FE489835F
:101ED00084E48A838091B7019091B8019B838C83BD
:101EE0008091BD019091BE019D838E838091B90147
:101EF0009091BA019F8388878091BB019091BC012A
:101F000099878A878091B3019091B4019B878C87D0
:101F10008091BF019091C0019D878E878091AF0114
:101F20009091B0019F87888B8091C1019091C201EF
:101F3000998B8A8B8091B5019091B6019B8B8C8B8C
:101F4000A70164E1CE01019603DB80E001C081E0DE
:101F500064960FB6F894DEBF0FBECDBFDF91CF9170
:101F60001F910F91FF90EF90DF900895DF92EF9215
:101F7000FF920F931F93CF93DF9300D000D01F9257
:101F8000CDB7DEB77C01D62E4C835D83BFDA4C81A2
:101F90005D81892B21F08091C502811161C0F7011B
:101FA000028193818181873709F046C08DE489835E
:101FB0000A839B8310E0F801E154F109E431F10553
:101FC00008F049C0EA5AFF4F0C94CC334C835D8330
:101FD0000E94282786E005C04C835D830E943D2730
:101FE00081E0809303014C815D8163E0CE01019625
:101FF000AFDA34C080917001882351F04C835D8347
:102000000E943D2781E0809303014C815D8110C0D7
:10201000809175018111F2CF4C835D830E942A2546
:102020004C815D818111EACF0E946A275D814C81DC
:1020300063E00DC062E010C0823769F48DE48983EB
:1020400080919E018A839B8363E0833479F6CE017D
:102050000196DFDA03C063E08D2D2BD580E001C04F
:1020600081E00F900F900F900F900F90DF91CF9124
:102070001F910F91FF90EF90DF900895FF920F93C3
:102080001F93CF93DF9300D000D000D0CDB7DEB741
:102090008C01F62E4D835E8339DA4D815E81892B6A
:1020A00021F08091C502811127C0F80191819D34F2
:1020B000F1F499839A8381E48B8381E08C8380910E
:1020C0009E01843419F4809103010BC0833411F410
:1020D00085E007C0813411F486E003C0883411F430
:1020E00087E08C8364E0CE01019632DA03C063E0BE
:1020F0008F2DDFD480E001C081E026960FB6F894E2
:10210000DEBF0FBECDBFDF91CF911F910F91FF902A
:1021100008950F931F93CF93DF93CDB7DEB7289722
:102120000FB6F894DEBF0FBECDBF8A01462F50E038
:102130006FE071E00E942E34892B91F40E94B40468
:1021400088E0E5E0F1E0DE01119601900D928A95BC
:10215000E1F7A80168E0CE01019651DA80E001C004
:1021600081E028960FB6F894DEBF0FBECDBFDF9199
:10217000CF911F910F9108959C019F7033FD906F37
:102180000895DF92EF92FF920F931F93CF93DF9307
:1021900000D000D01F92CDB7DEB78C017A01B6D93E
:1021A000892B21F08091C502811125C0F801D180D1
:1021B00080919A01882379F080916E0190916F014E
:1021C00097FD0F9624E0959587952A95E1F7D4DF42
:1021D000182F092F02C01FEF0FE07DD484E58983FB
:1021E000DA826B830C831D83A70165E0CE01019623
:1021F000AFD980E001C081E00F900F900F900F9059
:102200000F90DF91CF911F910F91FF90EF90DF9092
:1022100008950F931F93CF93DF9300D000D01F92A8
:10222000CDB7DEB78A0172D9892B21F08091C50222
:10223000811122C080919A01882369F080916E01FA
:1022400090916F0197FD0F9634E0959587953A959B
:10225000E1F792DF02C08FEF9FE024E5298323E4BA
:102260002A8321E42B839C838D83A80165E0CE0122
:1022700001966ED980E001C081E00F900F900F9021
:102280000F900F90DF91CF911F910F9108951F93A1
:10229000CF93DF9300D0CDB7DEB7162F49835A8393
:1022A00035D949815A81892B21F08091C50281114C
:1022B00005C062E0812FFDD380E001C081E00F9076
:1022C0000F90DF91CF911F9108951F93CF93DF93CC
:1022D00000D0CDB7DEB7162F49835A8317D949816D
:1022E0005A81892B21F08091C502811105C062E0DD
:1022F000812FDFD380E001C081E00F900F90DF914C
:10230000CF911F910895FF920F931F93CF93DF9367
:10231000CDB7DEB727970FB6F894DEBF0FBECDBF9F
:102320008C01F62E4E835F83F1D84E815F81892B1D
:1023300021F08091C50281112AC0F801818122819A
:102340008134E1F4213429F480918801909189014C
:1023500009C0223429F480918A0190918B0102C036
:102360008FEF9FEF37E4398331E43A832B839C83EB
:102370008D8365E0CE010196EBD807C0883411F457
:1023800062E001C063E08F2D94D380E001C081E062
:1023900027960FB6F894DEBF0FBECDBFDF91CF9169
:1023A0001F910F91FF900895CF93DF93EA01462F7D
:1023B00050E066E171E00E942E34892B39F4AE01C1
:1023C00067E08CE191E01BD980E001C081E0DF9102
:1023D000CF910895CF93DF93CDB7DEB72B970FB68C
:1023E000F894DEBF0FBECDBF4A875B878FD84A8582
:1023F0005B85892B21F08091C502811117C0CE0128
:10240000019629E0FC0111922A95E9F728E5298334
:10241000ECECF1E0DE01129621912D9321E0E43DF8
:10242000F207D1F769E094D880E001C081E02B96F3
:102430000FB6F894DEBF0FBECDBFDF91CF910895E8
:10244000DF92EF92FF920F931F93CF93DF93CDB75D
:10245000DEB727970FB6F894DEBF0FBECDBF8C0155
:10246000D62E7A0153D8892B39F48091C502813058
:1024700019F483E08D15B0F06D2DC80147D8892B74
:1024800021F48091C502813079F08091C5028111DB
:1024900003C083E08D1530F08091C502882321F0C0
:1024A00010E015C014E001C013E086E5898381E0E7
:1024B0008A8389E08B838C8386E18D838BE78E838F
:1024C00080E98F83A70167E0CE01019641D8812F73
:1024D00027960FB6F894DEBF0FBECDBFDF91CF9128
:1024E0001F910F91FF90EF90DF900895CF93DF93AE
:1024F00000D000D0CDB7DEB74B835C8307D84B81CB
:102500005C81892B21F08091C50281110AC088E489
:10251000898386E48A8362E0CE01019619D880E03F
:1025200001C081E00F900F900F900F90DF91CF913D
:102530000895CF93DF9300D000D0CDB7DEB74B83A3
:102540005C830E94860A4B815C81892B21F08091FB
:10255000C50281110AC086E489831A8262E0CE0135
:1025600001960E94A80A80E001C081E00F900F90C0
:102570000F900F90DF91CF910895CF93DF9300D00C
:1025800000D000D0CDB7DEB74D835E830E94860AAF
:102590004D815E81892B21F08091C50281110EC091
:1025A0008AE4898382E08A838BE08B838C8364E076
:1025B000CE0101960E94A80A80E001C081E0269623
:1025C0000FB6F894DEBF0FBECDBFDF91CF91089557
:1025D0000F931F93CF93DF9300D000D01F92CDB7FE
:1025E000DEB78A010E94860A892B21F08091C502FC
:1025F00081110FC070D283E589831A821B827C838C
:102600006D83A80165E0CE0101960E94A80A80E0D2
:1026100001C081E00F900F900F900F900F90DF910D
:10262000CF911F910F910895E0E2F3E02FB7F89456
:1026300086E093E091838083938382839583848370
:102640008EE193E09783868388E190E0918780878D
:10265000138612862FBF08951F920F920FB60F9206
:1026600011242F933F938F939F93AF93BF93EF9337
:10267000FF938091CE00E0E2F3E0A081B1818C93E2
:102680008081918101969183808326813781821791
:10269000930721F484819581918380832FB7F894E7
:1026A000828593850196938782872FBFFF91EF9153
:1026B000BF91AF919F918F913F912F910F900FBE3E
:1026C0000F901F901895E6ECF2E0119283E0E6304F
:1026D000F807D9F710922C0310921F030895F3DF27
:1026E00010922C0310921F030895CF93DF931F9233
:1026F000CDB7DEB790911F03903419F48983E3DFDF
:10270000898190911F03E92FF0E0EA53FD4F808308
:102710009F5F90931F030F90DF91CF910895CF9308
:10272000C62F413081F420912C01211104C0AC014D
:1027300061E08C2FBED180912C038F5F80932C039E
:10274000C0932C0113C0411111C080912C03860F3E
:1027500080932C0390911F03981304C010921F03C1
:1027600010922C03C23010F010922C01CF910895DA
:10277000CF93DF93EC0130912C03832F90E08A53A9
:102780009D4FFC01208160911F03631B213441F4A4
:10279000663010F460E016C1AE0166E000D8FDC0FE
:1027A000223431F46430B0F3AE0164E070DDB0C0C7
:1027B000233439F4683070F3AE0168E000DA68E081
:1027C00002C1243431F4653028F3AE0165E0C5D987
:1027D00019C0253441F46230E8F2AE0162E00E9493
:1027E0005E0B62E0F0C0263431F4633098F2AE0143
:1027F00063E09FDEB7C0273439F4653058F2AE018C
:1028000065E081DD65E0DFC0283439F4633008F429
:10281000C1CFAE0163E06ADEA5C0293441F46C305B
:1028200008F4B8CFAE016CE06EDA6CE0CCC02A34AC
:1028300039F4633008F4AECFAE0163E09EDE92C09F
:102840002D34A1F4FC01218120931E032D3439F491
:10285000653008F49FCFAE0165E010DCD3CF663061
:1028600008F498CFAE0166E081DB97C02E3439F4CE
:10287000663008F48FCFAE0166E04BDC8EC02F349B
:1028800079F4FC01228120931E03243409F082CFC5
:10289000673108F47FCFAE0167E18EDA67E193C05C
:1028A000203541F46A3008F475CFAE016AE02CD8C7
:1028B0006AE089C0223541F4673008F46BCFAE017D
:1028C00067E00E94C50B59C02335A1F4FC012181AA
:1028D00020931E03223739F4643008F45BCFAE0135
:1028E00064E076DE15C0653008F454CFAE0165E0D3
:1028F0005BDD88CF243509F5FC01218120931E037F
:10290000213441F4643008F445CFAE0164E039DC91
:1029100064E059C0233439F4653008F43BCFAE018C
:1029200065E077DC6FCF243409F034CF653008F4EC
:1029300031CFAE0165E0C9DC65CF263559F463308F
:1029400008F428CFAE017CDD682F81113BC063E025
:1029500081E039C0283541F4633008F41BCFAE0163
:1029600063E038DD63E02FC0293549F4673008F4AF
:1029700011CFAE0167E00E94860B67E024C02A35C4
:10298000C1F4FC01218120931E03273741F46630F6
:1029900008F400CFAE0166E08BD866E014C02237A1
:1029A00009F0F8CE653008F4F5CEAE0165E0ABD89D
:1029B00029CF80912C01811104C0AE0163E081E038
:1029C00078D061E080E090912C01992319F091502A
:1029D00090932C01482FCE01DF91CF91A0CEEF92A2
:1029E000FF920F931F93CF93DF938C017B01EA013A
:1029F000CE010E94CE2A892B41F010932B01009327
:102A00002A0180911F03813450F09FB7F894809180
:102A10002A039FBF80932901811106C013C0CE01F4
:102A20000E94FB2A62DEE4CFF0922B01E0922A01A1
:102A3000C0E0D0E000E213E08091290190E0C817E7
:102A4000D907ACF080911F0390E020912C03821BEA
:102A500091091816190634F580912A0190912B01DD
:102A6000DF91CF911F910F91FF90EF9081CEF801F0
:102A7000A281B3818D91B383A28326813781A2176E
:102A8000B30721F424813581338322839FB7F894DF
:102A90002285338521503109338722879FBF25DE68
:102AA0002196CACFDF91CF911F910F91FF90EF90A8
:102AB0000895CF93DF9300D0CDB7DEB785E4898347
:102AC0006A8362E0CE0101960E94A80A0F900F90DF
:102AD000DF91CF9108950F931F938091750101E0CD
:102AE00010E020E030E0811103C000E010E0980128
:102AF000C901B80140918001442321F04091700147
:102B0000442319F0C901B8016260209174012111B8
:102B1000646020916801222329F020919E012334D2
:102B200009F468602091870121116061209167019B
:102B30002111606220917301222329F020919E01CE
:102B4000233409F4606420915701222329F0209155
:102B50009E01233409F4606820917601211171608F
:102B60001F910F91089581E080937501809370010A
:102B7000109278018093570110928701809373011E
:102B8000809374018093680110927601109267011E
:102B9000089580919D01823071F42AD081E0809364
:102BA000700180918001882319F00E94F007C9D03C
:102BB000109280011BC080919D01813021F4109200
:102BC000760116D013C08091800181110FC010D002
:102BD000F89479DD0E942F290E94212981E08093B9
:102BE000800106D099D04BD0ACD078940C946B0275
:102BF0001092750180919A01811103C081E0809348
:102C0000750180919D01882319F081E08093750101
:102C10008091750108950E94520180919D0108954F
:102C20001092760110929A011092A001089560917D
:102C3000900170919101882777FD8095982F0E94CF
:102C4000D83120E030E048E453E40C943D31609109
:102C50007E0170917F01882777FD8095982F0E94D3
:102C6000D8312091790330917A0340917B035091C0
:102C70007C030E943D319B01AC010C94CA328091CF
:102C8000A3019091A40164E670E00E947A338FEF73
:102C90009FE00E947A3380E090E00E94D6316093FA
:102CA000790370937A0380937B0390937C030E9453
:102CB000090540916E0150916F0120E060E070E0E5
:102CC00081E00E94DD239093910180939001AFDF1A
:102CD000DC01CB01BF778093610390936203A093E3
:102CE0006303B0936403A3DFDC01CB01BF77809360
:102CF0007D0390937E03A0937F03B093800397DFBF
:102D0000DC01CB01BF778093710390937203A09392
:102D10007303B0937403089580919E01833481F00E
:102D200040916E0150916F0160917E0170917F0121
:102D300021E081E00E94DD23909391018093900136
:102D400008954F925F926F927F928F929F92AF926F
:102D5000BF92CF92DF92EF92FF92CF93DF93CDB7E6
:102D6000DEB728970FB6F894DEBF0FBECDBF0E9426
:102D70009B07BC01882777FD8095982F0E94D8314A
:102D80009B01AC0160E070E080E89FE30E943D3170
:102D90006B017C016091B3017091B40180E090E01F
:102DA0000E94D63120E030E040E85BE30E94CA3266
:102DB0004B015C016091F4017091F50180E090E0BD
:102DC0000E94D63120E030E040EA51E40E943D31DB
:102DD0009B01AC01C501B4010E94CA324B015C01E8
:102DE0006091BF017091C00180E090E00E94D631F7
:102DF00020E030E040E85BE30E94CA322B013C0156
:102E00006091F6017091F70180E090E00E94D63168
:102E100020E030E040EA51E40E943D319B01AC01EA
:102E2000C301B2010E94CA3269837A838B839C8377
:102E30006091EE017091EF0180E090E00E94D63148
:102E400020E030E543EC57E40E943D312B013C018A
:102E50006091B7017091B80180E090E00E94D63196
:102E60009B01AC01C301B2010E94CA3220E030E0F4
:102E700040E85BE30E94CA32609365037093660387
:102E8000809367039093680360935D0370935E0380
:102E900080935F0390936003A5019401C701B6017D
:102EA0000E943D314B015C019B01AC010E94CA3282
:102EB0002B013C01A501940160E070E080E89FE3F4
:102EC0000E94D4306D837E838F83988720E030E02A
:102ED00040E05FE3C301B2010E94CA329B01AC0132
:102EE0006D817E818F8198850E94D5306D837E8330
:102EF0008F839887A5019401C301B2010E94CA3251
:102F000020E030E040EC50E40E943D319B01AC01F8
:102F10006D817E818F8198850E94D4302B013C0188
:102F2000609385037093860380938703909388034F
:102F300029813A814B815C81C701B6010E943D31F4
:102F40004B015C019B01AC010E94CA3269837A8308
:102F50008B839C83A501940160E070E080E89FE38F
:102F60000E94D4306D837E838F83988720E030E089
:102F700040E05FE369817A818B819C810E94CA3243
:102F80009B01AC016D817E818F8198850E94D53037
:102F90006D837E838F839887A501940169817A81EF
:102FA0008B819C810E94CA3220E030E040EC50E4EA
:102FB0000E943D319B01AC016D817E818F8198859E
:102FC0000E94D4304B015C0160934D0370934E031B
:102FD00080934F0390935003A3019201C301B20168
:102FE0000E944D33882341F010928503109286038E
:102FF0001092870310928803A5019401C501B401C2
:103000000E944D33882341F010924D0310924E03DD
:1030100010924F03109250036091AF017091B00174
:1030200080E090E00E94D63120E030E040E85BE3B1
:103030000E94CA324B015C016091F8017091F90164
:1030400080E090E00E94D6319B01AC01C501B40143
:103050000E94CA324B015C016091F0017091F10154
:1030600080E090E00E94D63120E030E543EC57E468
:103070000E943D312B013C016091BD017091BE0168
:1030800080E090E00E94D6319B01AC01C301B20107
:103090000E94CA3220E030E040E85BE30E94CA327E
:1030A0006093590370935A0380935B0390935C037E
:1030B000609331037093320380933303909334030E
:1030C000A5019401C701B6010E943D314B015C018D
:1030D0009B01AC010E94CA322B013C01A501940165
:1030E00060E070E080E89FE30E94D43069837A83D7
:1030F0008B839C8320E030E040E05FE3C301B201BA
:103100000E94CA329B01AC0169817A818B819C81CA
:103110000E94D53069837A838B839C83A5019401B7
:10312000C301B2010E94CA3220E030E040EC50E41A
:103130000E943D319B01AC0169817A818B819C8128
:103140000E94D43060933503709336038093370325
:10315000909338039B01AC010E944D33882341F0CA
:1031600010923503109236031092370310923803F1
:103170006091C1017091C20180E090E00E94D6315F
:1031800020E030E040E85BE30E94CA324B015C0182
:103190006091FA017091FB0180E090E00E94D631CD
:1031A0002DEC3CEC4CE45DE30E943D319B01AC0115
:1031B000C501B4010E94CA324B015C016091F20169
:1031C0007091F30180E090E00E94D63120E030E57C
:1031D00043EC57E40E943D312B013C016091B90161
:1031E0007091BA0180E090E00E94D6319B01AC0161
:1031F000C301B2010E94CA3220E030E040E85BE344
:103200000E94CA32609375037093760380937703AC
:103210009093780360935103709352038093530308
:1032200090935403A5019401C701B6010E943D315A
:103230004B015C019B01AC010E94CA322B013C0195
:10324000A501940160E070E080E89FE30E94D43023
:1032500069837A838B839C8320E030E040E05FE3E6
:10326000C301B2010E94CA329B01AC0169817A811B
:103270008B819C810E94D53069837A838B839C8368
:10328000A5019401C301B2010E94CA3220E030E0DE
:1032900040EC50E40E943D319B01AC0169817A8190
:1032A0008B819C810E94D4306093690370936A0380
:1032B00080936B0390936C039B01AC010E944D3390
:1032C000882341F01092690310926A0310926B03F5
:1032D00010926C036091B5017091B60180E090E0AE
:1032E0000E94D63120E030E040E85BE30E94CA3221
:1032F0004B015C016091FE017091FF0180E090E064
:103300000E94D6319B01AC01C501B4010E94CA32B2
:103310004B015C016091FC017091FD0180E090E047
:103320000E94D63120E836E948E15BE40E943D3155
:103330002B013C016091BB017091BC0180E090E0E9
:103340000E94D6319B01AC01C301B2010E94CA3276
:1033500020E030E040E85BE30E94CA3260938103E2
:103360007093820380938303909384036093490353
:1033700070934A0380934B0390934C03A5019401EF
:10338000C701B6010E943D316B017C019B01AC017C
:103390000E94CA324B015C01A701960160E070E017
:1033A00080E89FE30E94D4302B013C0120E030E014
:1033B00040E05FE3C501B4010E94CA329B01AC0149
:1033C000C301B2010E94D5302B013C01A701960137
:1033D000C501B4010E94CA3220E030E040EC50E464
:1033E0000E943D319B01AC01C301B2010E94D43067
:1033F000609341037093420380934303909344038B
:103400009B01AC010E944D33882341F0109241038F
:103410001092420310924303109244036091EC0116
:103420007091ED0180E090E00E94D63120E836E90D
:1034300048E959E40E943D3127E137EB41ED59E37A
:103440000E94D430609355037093560380935703C2
:10345000909358036091EA017091EB0180E090E055
:103460000E94D63120E030E040E251E40E943D313C
:1034700020E030E040E251E40E94D43060936D03DC
:1034800070936E0380936F039093700328960FB62A
:10349000F894DEBF0FBECDBFDF91CF91FF90EF90CC
:1034A000DF90CF90BF90AF909F908F907F906F9064
:1034B0005F904F9008954F925F926F927F928F929C
:1034C0009F92AF92BF92CF92DF92EF92FF92CF93F3
:1034D000DF93CDB7DEB728970FB6F894DEBF0FBEE7
:1034E000CDBF5C018091650390916603A091670355
:1034F000B091680389839A83AB83BC83409059035E
:1035000050905A0360905B0370905C038091750348
:1035100090917603A0917703B09178038D839E8379
:10352000AF83B887A301920169817A818B819C81E5
:103530000E94D5302D813E814F8158850E94D53023
:103540006B017C0120E030E0A9010E94393181113A
:1035500019C010925D0310925E0310925F031092E7
:1035600060031092310310923203109233031092D1
:10357000340310925103109252031092530310928D
:1035800054036BC0B501882777FD8095982F0E9462
:10359000D83120E030E040E85BE30E94CA3220915D
:1035A0006D0330916E0340916F03509170030E9440
:1035B000D4302091550330915603409157035091D8
:1035C00058030E94CA324B015C0129813A814B8128
:1035D0005C810E94CA32A70196010E943D31298177
:1035E0003A814B815C810E94D53060935D0370937A
:1035F0005E0380935F0390936003A3019201C50172
:10360000B4010E94CA32A70196010E943D31A30174
:1036100092010E94D53060933103709332038093FE
:103620003303909334032D813E814F815885C5012A
:10363000B4010E94CA32A70196010E943D312D813A
:103640003E814F8158850E94D5306093510370931D
:103650005203809353039093540328960FB6F89423
:10366000DEBF0FBECDBFDF91CF91FF90EF90DF9017
:10367000CF90BF90AF909F908F907F906F905F9012
:103680004F9008958F929F92AF92BF92CF92DF9208
:10369000EF92FF920F931F93CF93DF934B015C0147
:1036A00069017A01E80160E070E080E89FE30E9430
:1036B000D430A50194010E94CA324B015C012881DB
:1036C00039814A815B81C701B6010E94CA329B01E0
:1036D000AC01C501B4010E94D530688379838A8327
:1036E0009B83DF91CF911F910F91FF90EF90DF901F
:1036F000CF90BF90AF909F908F9008956F927F92E0
:103700008F929F92AF92BF92CF92DF92EF92FF92F1
:103710000F931F93CF93DF9300D000D0CDB7DEB7C8
:103720004A015B01A90198013701823099F429838C
:103730003A834B835C838BDA870129813A814B8101
:103740005C81A0DFF7012081318142815381C50175
:10375000B4011BC08130E1F429833A834B835C833D
:1037600066DA6B017C019F77830129813A814B8165
:103770005C8188DFA7019601C501B4010E94CA32AD
:10378000F30120813181428153810E94CA3203C0FA
:1037900060E070E0CB010F900F900F900F90DF91E1
:1037A000CF911F910F91FF90EF90DF90CF90BF903E
:1037B000AF909F908F907F906F9008958F929F927F
:1037C000AF92BF92CF92DF92EF92FF920F931F932F
:1037D000CF93DF9300D000D0CDB7DEB710922D018C
:1037E00010922E0110922F01109230011092B2010E
:1037F0001092B10180916E0190916F015CDE17DA39
:103800009F7720916103309162034091630350914F
:1038100064030E94C63240915D0350915E03609143
:103820005F037091600387FD09C0009185031091CB
:103830008603209187033091880308C000914D03CF
:1038400010914E0320914F033091500381E6E82EF2
:1038500083E0F82E81E052DF4B015C0100913503DB
:103860001091360320913703309138034091310392
:103870005091320360913303709134039DE7E92E38
:1038800093E0F92E81E03ADF6B017C0120E030E02B
:10389000A901C501B4010E94D530A70196010E947B
:1038A000D5304B015C010091690310916A032091AE
:1038B0006B0330916C03409151035091520360911E
:1038C000530370915403E1E7EE2EE3E0FE2E81E016
:1038D00015DF9B01AC01C501B4010E94D5304B013D
:1038E0005C01209141033091420340914303509188
:1038F0004403C0904903D0904A03E0904B03F090FA
:103900004C0329833A834B835C83A1D90DE213E0F6
:1039100029813A814B815C81B5DE20912D03309164
:103920002E0340912F0350913003C701B6010E942E
:10393000CA329B01AC01C501B4010E94D53060932D
:103940002D0170932E0180932F019093300120E080
:1039500030E048E453E40E94CA320E94A5317093DB
:10396000B2016093B1010F900F900F900F90DF9113
:10397000CF911F910F91FF90EF90DF90CF90BF906C
:10398000AF909F908F900895CF93DF93EA018823A3
:1039900009F45DC0813009F062C0623061F06330CB
:1039A00099F1613009F05BC08091B1019091B20151
:1039B000C80FD91F54C0BA01882777FD8095982F6A
:1039C00057FF0BC00E94D8312091390330913A0340
:1039D00040913B0350913C030AC00E94D831209192
:1039E0003D0330913E0340913F03509140030E94BC
:1039F000CA322091450330914603409147035091CC
:103A000048030E94D53013C0BA01882777FD8095FE
:103A1000982F57FF11C00E94D83120913D0330915B
:103A20003E0340913F03509140030E94CA320E94DE
:103A3000A531C60FD71F13C00E94D831209139037A
:103A400030913A0340913B0350913C03EECF6130FB
:103A500031F48091B1019091B201C81BD90BCE0114
:103A6000DF91CF9108954F925F926F927F928F92E4
:103A70009F92AF92BF92CF92DF92EF92FF92CF933D
:103A8000DF93CDB7DEB728970FB6F894DEBF0FBE31
:103A9000CDBF40919201509193016091840170914A
:103AA000850120E081E089D690939501809394016F
:103AB00040917C0150917D016091620170916301A0
:103AC00020E081E07AD690937A0180937901609129
:103AD000790170917A01882777FD8095982F0E944F
:103AE000D83169837A838B839C8360919401709130
:103AF0009501882777FD8095982F0E94D8312B015A
:103B00003C014B015C01E894B7F8C980DA80EB8096
:103B1000FC80E894F7F8A5019401C701B6010E9462
:103B200013326D837E838F83988720E030E0A90174
:103B300069817A818B819C810E94393118164CF001
:103B400020E030E0A901C301B2010E94C63287FF24
:103B500009C0A5019401C701B6010E9432326B0170
:103B60007C0103C0C12CD12C76016091EC017091D5
:103B7000ED0180E090E00E94D63120E836E948E986
:103B800059E40E943D3127E137EB41ED59E30E94B2
:103B9000D43020E030E0A9010E94C63287FD09C080
:103BA00080917C0190917D016090920170909301D1
:103BB00008C0809192019091930160907C01709077
:103BC0007D0179DC20E030E0A90160915D03709116
:103BD0005E0380915F03909160030E94D530209135
:103BE00031033091320340913303509134030E94EA
:103BF000D53020915103309152034091530350919D
:103C000054030E94D5304B015C01C30154DC20E019
:103C100030E0A90160915D0370915E0380915F03C4
:103C2000909160030E94D53020913103309132038E
:103C300040913303509134030E94D53020915103B9
:103C40003091520340915303509154030E94D53058
:103C50002B013C01A5019401C701B6010E94CA32A3
:103C600020E030E048E453E40E943D3160933903A2
:103C700070933A0380933B0390933C03A30192011A
:103C80006D817E818F8198850E94CA3220E030E06C
:103C900048E453E40E943D3160933D0370933E033A
:103CA00080933F03909340036091620170916301A0
:103CB000C0907903D0907A03E0907B03F0907C036E
:103CC000882777FD8095982F0E94D831A70196010B
:103CD0000E943D314B015C0160918401709185012E
:103CE000882777FD8095982F0E94D831A7019601EB
:103CF0000E943D316B017C01A5019401C501B40115
:103D00000E94CA324B015C01A7019601C701B601AE
:103D10000E94CA326B017C019B01AC01B401C50158
:103D20000E94C632181614F46401750120E030E0D8
:103D3000A901609181037091820380918303909126
:103D400084030E94D5309B01AC01B601C7010E94DB
:103D5000CA3220E030E048E453E40E94CA32609363
:103D60004503709346038093470390934803289636
:103D70000FB6F894DEBF0FBECDBFDF91CF91FF909D
:103D8000EF90DF90CF90BF90AF909F908F907F90FB
:103D90006F905F904F9008954F925F926F927F92D5
:103DA0008F929F92AF92BF92CF92DF92EF92FF924B
:103DB0000F931F93CF93DF93CDB7DEB728970FB63E
:103DC000F894DEBF0FBECDBF912C5CE5852EA0918F
:103DD0000102B0910202492C512C11974A165B0640
:103DE00098F5849CD001859CB00D1124AF5FBD4F28
:103DF0001396CD90DC901497A20147575C4FFA01BF
:103E0000C0821596ED90FC9016978E159F05D4F004
:103E10005201FFEFAF1ABF0A8A9C70018B9CF00C15
:103E20001124A7014F5F5D4FFA01C580D680C816E7
:103E3000D90644F06580768015960D911C911697F1
:103E4000B20195019394C3CFE0910602F09107026D
:103E5000E817F9076CF060906202709063020091BD
:103E600006021091070260E070E021E030E03CC003
:103E7000A0910102B091020211974CE5F42EFA9E36
:103E8000F001FB9EF00D1124EF5FFD4F0580F681E0
:103E9000E02D8E179F0744F180910102909102025C
:103EA0000197F89EF001F99EF00D1124EF5FFD4F90
:103EB0006580768020910102309102022150310903
:103EC00080910102909102020297F89EF001F99E02
:103ED000F00D1124EF5FFD4F058116816091010205
:103EE00070910202625071093A8329837C826B824D
:103EF0007E836D8318870F833A81462D5C817E8196
:103F0000802F988528960FB6F894DEBF0FBECDBFE0
:103F1000DF91CF911F910F91FF90EF90DF90CF90A5
:103F2000BF90AF909F908F907F906F905F904F90D9
:103F300008952F923F924F925F926F927F928F924D
:103F40009F92AF92BF92CF92DF92EF92FF920F9328
:103F50001F93CF93DF93CDB7DEB7A5970FB6F89435
:103F6000DEBF0FBECDBF4C01798B688B2CE5289F3F
:103F7000F001299FF00D1124EF5FFD4F63817481E3
:103F80007F876E87878190859D878C87198637E12B
:103F9000389DD001399DB00D1124BF8BAE8BC4016B
:103FA0000197389FB001399F700D1124798F688F68
:103FB000DF011596BB8FAA8F289FF001299FF00D76
:103FC0001124EA5FFD4FFB87EA87BA01882777FD56
:103FD0008095982F6C8F7D8F8E8F9F8F8E859F857C
:103FE000019799A388A3E9852E2E312C2E853F8534
:103FF000221633060CF0A0C0EE89FF89E20DF31DF6
:10400000EE0FFF1FEE0FFF1FEB5FFD4F03811481CB
:10401000E88DF98DE20DF31DEE0FFF1FEE0FFF1F70
:10402000EB5FFD4F63807480AA8DBB8D4D905C90DB
:10403000EA85FB8560817181882777FD8095982FBF
:104040000E94D8315B016C01B201882777FD809511
:10405000982F0E94D8316A8B7B8B8C8B9D8BB30100
:10406000882777FD8095982F0E94D8319B01AC015D
:10407000B801882777FD8095982F2AA33BA34CA3EE
:104080005DA30E94D8312B013C016C8D7D8D8E8DFE
:104090009F8D0E94D8319F938F937F936F93EA886F
:1040A000FB880C891D892AA13BA14CA15DA1C301FC
:1040B000B201BBD70E94A5319B010F900F900F90CA
:1040C0000F90F985FF2391F1488959896417750785
:1040D00044F147E1489DC001499D900D1124FC0128
:1040E000E20DF31DEE0FFF1FEE0FFF1FEF5FFD4F01
:1040F00041855285F1013197E80FF91FEE0FFF1F3F
:10410000EE0FFF1FEF5FFD4F818592853A83298374
:104110005C834B836C857D857E836D8398878F83DD
:1041200013C0A8A1B9A12A163B0699F2B985BF5FB1
:10413000B9877D876C8757CF1A8219821C821B82B0
:104140001E821D8218861F8229813A814B815C81E3
:104150006D817E818F819885A5960FB6F894DEBF1C
:104160000FBECDBFDF91CF911F910F91FF90EF90C8
:10417000DF90CF90BF90AF909F908F907F906F9087
:104180005F904F903F902F900895CF93DF93CDB7DE
:10419000DEB728970FB6F894DEBF0FBECDBF97E10C
:1041A000899FF00111249F01260F311DD901AA0F0B
:1041B000BB1FAA0FBB1FAF5FBD4F19968D919C917E
:1041C0001A97D901AA0FBB1FAA0FBB1FAB5FBD4F28
:1041D00013966D917C911497E40FF11DDF01AA0FE6
:1041E000BB1FAA0FBB1FAF5FBD4F19964D915C91CE
:1041F0001A97EE0FFF1FEE0FFF1FEB5FFD4F23819E
:1042000034813A8329835C834B837E836D839887D3
:104210008F833A815C817E81988528960FB6F894C9
:10422000DEBF0FBECDBFDF91CF910895EF92FF9219
:104230000F931F93CF93DF93CDB7DEB728970FB6B9
:10424000F894DEBF0FBECDBF9B014CE5489FF00147
:10425000499FF00D1124EF5FFD4FA381B4814FEF13
:104260004A0F5091030260E070E0513039F057E19D
:10427000589F8001599F100D112456C057E1589F37
:104280008001599F100D1124562F641728F57B01CA
:10429000EFEFEE1AFE0AF801EE0DFF1DEE0FFF1F05
:1042A000EE0FFF1FEF5FFD4F0184F285E02D2E170B
:1042B0003F0784F4F801E60FF71FEE0FFF1FEE0F24
:1042C000FF1FEF5FFD4F0184F285E02D2E173F07A2
:1042D0000CF052C0B701D8CF57E1589FF001599F59
:1042E000F00D1124E40FF11DEE0FFF1FEE0FFF1F65
:1042F000EF5FFD4F61857285621773075CF53FC004
:104300007B01EFEFEE1AFE0AF801EE0DFF1DEE0F36
:10431000FF1FEE0FFF1FEF5FFD4F0184F285E02DC1
:10432000E217F307D4F0B701562F641748F357E1AB
:10433000589FF001599FF00D1124E40FF11DEE0F6D
:10434000FF1FEE0FFF1FEF5FFD4F61857285261780
:104350003707ACF041E060E014C0F801E60FF71F4A
:10436000EE0FFF1FEE0FFF1FEF5FFD4F0184F28581
:10437000E02DE217F307BCF241E0450F02C06EEFFB
:104380006A0F03DF29833A834B835C836D837E83CB
:104390008F83988729813A814B815C816D817E81F1
:1043A0008F81988528960FB6F894DEBF0FBECDBFDB
:1043B000DF91CF911F910F91FF90EF9008952F9271
:1043C0003F924F925F926F927F928F929F92AF92A5
:1043D000BF92CF92DF92EF92FF920F931F93CF93F2
:1043E000DF93CDB7DEB72A970FB6F894DEBF0FBEC6
:1043F000CDBF182F7A8769876A011092AD0310929A
:10440000AE031092AF031092B003209101023091DD
:104410000202232B09F4ABC110928D0310928E037C
:1044200010928F03109290031092910310929203B6
:104430001092930310929403CA01AEDC209395036B
:104440003093960340939703509398036093990396
:1044500070939A0380939B0390939C03112309F418
:1044600014C1113009F083C169857A858091950363
:1044700090919603DBDE20939D0330939E0340933F
:104480009F035093A0036093A1037093A2038093B2
:10449000A3039093A40369857A85809199039091F1
:1044A0009A03C4DE2093A5033093A6034093A70389
:1044B0005093A8036093A9037093AA038093AB035E
:1044C0009093AC03B601882777FD8095982F0E94C2
:1044D000D8311B014C016091970370919803882794
:1044E00077FD8095982F0E94D8315B016C01609117
:1044F0009B0370919C03882777FD8095982F0E94DD
:10450000D8312B013C0160919D0370919E03882757
:1045100077FD8095982F0E94D8319B01AC01809146
:10452000A5039091A603BC01882777FD8095982F5D
:104530002D833E834F8358870E94D8319F928F925C
:104540003F922F92830172012D813E814F815885C8
:104550006CD560939103709392038093930390932F
:1045600094036091970370919803882777FD809555
:10457000982F0E94D8315B016C0160919B03709170
:104580009C03882777FD8095982F0E94D8312B01B6
:104590003C016091A1037091A203882777FD80956B
:1045A000982F0E94D8319B01AC018091A903909172
:1045B000AA03BC01882777FD8095982F2D833E8321
:1045C0004F8358870E94D8319F928F923F922F92AB
:1045D000830172012D813E814F81588526D52B01A3
:1045E0003C0160938D0370938E0380938F039093AF
:1045F00090036091A7037091A803882777FD8095A9
:10460000982F0E94D8315B016C016091AB037091CF
:10461000AC03882777FD8095982F0E94D831698355
:104620007A838B839C8320919103309192034091F4
:10463000930350919403E985FA85BF01882777FD9C
:104640008095982F2D833E834F8358870E94D831C1
:104650009F938F937F936F93E980FA800B811C81E6
:104660002D813E814F815885C301B201DED4609314
:10467000AD037093AE038093AF039093B0030FB676
:10468000F894DEBF0FBECDBF72C0A60169857A85E2
:1046900080919503909196034CDC20939D03309379
:1046A0009E0340939F035093A0036093A1037093D4
:1046B000A2038093A3039093A40360919D03709140
:1046C0009E03882777FD8095982F0E94D8315B0143
:1046D0006C016091A1037091A203882777FD8095FA
:1046E000982F0E94D83169837A838B839C83609151
:1046F0009F037091A003882777FD8095982F0E94D3
:10470000D8319B01AC016091A3037091A403882769
:1047100077FD8095982F2D833E834F8358870E9485
:10472000D8312B013C01E985FA85BF01882777FD47
:104730008095982F0E94D8319F938F937F936F938A
:10474000E980FA800B811C812D813E814F81588543
:10475000C301B2016AD46093AD037093AE0380933A
:10476000AF039093B0030F900F900F900F90609154
:10477000AD037091AE038091AF039091B0030E949E
:104780002D330E94A531CB012A960FB6F894DEBFD7
:104790000FBECDBFDF91CF911F910F91FF90EF9092
:1047A000DF90CF90BF90AF909F908F907F906F9051
:1047B0005F904F903F902F9008950F931F93CF934A
:1047C000DF931F92CDB7DEB78A01909175019111E9
:1047D00021C09091700191111DC0882371F081302A
:1047E000C9F42983ECDDAC012981622F81E00F90AF
:1047F000DF91CF911F910F91C7C8AB01622F80E06D
:10480000C3D8A801BC0180E00F90DF91CF911F9128
:104810000F91D5CD80E090E00F90DF91CF911F9167
:104820000F91089580919E018334E9F420917E01D7
:1048300030917F018091840190918501281739077B
:104840007CF420917E0130917F01809162019091F2
:10485000630141E0821793070CF440E0842F01C00C
:1048600081E08093680120917E0130917F018091E9
:10487000690190916A01821793072CF480917E015F
:1048800090917F0104C08091690190916A01909399
:104890007F0180937E0120917E0130917F01809184
:1048A0006C0190916D01281739072CF480917E01DD
:1048B00090917F0104C080916C0190916D01909363
:1048C0007F0180937E0140917E0150917F01809114
:1048D000DB019091DC01A091DD01B091DE01662742
:1048E00057FD6095762F84179507A607B70724F420
:1048F00080917E0190917F0190937F0180937E0152
:1049000040917E0150917F018091D7019091D80113
:10491000A091D901B091DA01662757FD6095762FF5
:10492000481759076A077B0724F480917E0190910C
:104930007F0190937F0180937E0180E00C94EC07CF
:10494000209190013091910180918C0190918D0185
:10495000281739077CF020919001309191018091C6
:1049600081019091820141E0821793070CF040E0B1
:10497000842F01C081E080937301089580916201CA
:10498000909163019093B6038093B5038091840165
:10499000909185019093BC038093BB038091620149
:1049A000909163019093B4038093B3038091840149
:1049B000909185019093BA038093B903409192013D
:1049C000509193016091B5037091B60322E081E0AC
:1049D000F4DE90938D0180938C0140917C01509185
:1049E0007D016091BB037091BC0323E081E0E5DEB3
:1049F000909382018093810140917C0150917D01CF
:104A00006091B3037091B40323E081E0D6DE90930C
:104A10007A018093790140919201509193016091C4
:104A2000B9037091BA0322E081E0C7DE909395014B
:104A30008093940120918C0130918D0180918101AE
:104A40009091820141E0821793070CF040E040937F
:104A5000870176CF93DF8091870108958091D701F8
:104A60009091D801A091D901B091DA0118161906D8
:104A70001A061B069CF540916C0150916D0166274A
:104A800057FD6095762F84179507A607B70724F082
:104A900080916C0190916D019093850180938401C8
:104AA0008091DB019091DC01A091DD01B091DE01EC
:104AB0004091690150916A01662757FD6095762FF4
:104AC000481759076A077B0724F080916901909184
:104AD0006A019093630180936201089580916C0153
:104AE00090916D019093850180938401EECFB6DFA4
:104AF0000E94331D43CF70937D0160937C0190939E
:104B000093018093920120917C0130917D018091ED
:104B100092019091930141E0821793070CF040E0DD
:104B200040937801E4DF10927401089597DFDFCF9E
:104B30000E94260377CE40916E0150916F016091E3
:104B400090017091910121E080E037DE90937F0128
:104B500080937E0167DEF4CE80E00E942303909371
:104B600089018093880108950F931F93CF93DF935A
:104B700000D000D0CDB7DEB78C01CA014B835C8377
:104B800069837A83F5D40E942C304B815C816981E2
:104B90007A81C8010F900F900F900F90DF91CF9105
:104BA0001F910F9148C08091C401803509F486C0DF
:104BB00008950E948C160E94DE1B81E08093BC0247
:104BC00008958091BC02813069F51092BC020E9468
:104BD000AC0140916E0150916F0180913101909133
:104BE00032019C0120563F4F4217530748F4209151
:104BF0006E0130916F01805A91098217930770F00E
:104C000080916E0190916F010E945B1A80916E01FC
:104C100090916F0190933201809331010E940B16A5
:104C20000E94C91580919D01882321F00E940B16D6
:104C30000C94C9150895CF93DF9300D000D000D015
:104C4000CDB7DEB74D835E836B837C8389839A8384
:104C5000B8DF4D815E816B817C8189819A810E9460
:104C6000EF1480919E01833469F08035A9F081347E
:104C7000E1F426960FB6F894DEBF0FBECDBFDF91EC
:104C8000CF9156CF69DF26960FB6F894DEBF0FBEE0
:104C9000CDBFDF91CF914FCF26960FB6F894DEBFF0
:104CA0000FBECDBFDF91CF911DC026960FB6F894F1
:104CB000DEBF0FBECDBFDF91CF914ECF80910401FB
:104CC000815019F080930401089585E080930401D8
:104CD0008091BD039091BE0301969093BE03809393
:104CE000BD030895CF93C0913401C13059F160F0F4
:104CF000C23009F05AC08CEA94EF90937F01809300
:104D00007E0190DDF8943DC08AEA95E090937F01A2
:104D100080937E0187DD80913301811108C010925C
:104D2000BE031092BD0381E0809333013EC08091A9
:104D3000BD039091BE0383369105B8F11092330103
:104D400081E01CC086E59AEF90937F0180937E01FD
:104D500069DD80913301811107C01092BE0310926A
:104D6000BD03C093330121C08091BD039091BE0368
:104D700083369105D0F01092330182E080933401A4
:104D800014C080917E0190917F01019690937F01E4
:104D900080937E0147DD80917E0190917F01843573
:104DA0009B4079F7789410923401CF910895982F11
:104DB00080919E01843439F081E0963431F0903551
:104DC00021F080E0089581E008950895F89490918D
:104DD000C4019093C3018093C4010E9476070E948E
:104DE000840481E08093BF0378940895CF93C82F03
:104DF0001092BF038091C4018035F1F08091C4010D
:104E0000C81304C081E08093BF0316C08C2FCFDF8E
:104E1000882391F0C03571F4C0939E0121E030EFFA
:104E200030936A01209369012FEF3FE030936D01C9
:104E300020936C018C2FCADF8091BF03CF9108951E
:104E40008091C401863411F086E4D0CF81E00895CA
:104E5000F7DF882349F080919E0180939F0181E4D0
:104E600080939E010C94980408958091C401863427
:104E700011F086E4BBCF81E00895F7DF882309F1C4
:104E8000F89480919E01833411F0883481F440912C
:104E90006E0150916F01609190017091910121E03C
:104EA00080E08BDC90937F0180937E01BBDC80915E
:104EB0009E0180939F0184E480939E010E94980448
:104EC000789408958091C401863411F086E48ECFE1
:104ED00081E00895F7DF8823F9F0F89480919E012E
:104EE000843479F440916E0150916F0160917E019C
:104EF00070917F0121E081E060DC909391018093CB
:104F0000900180919E0180939F0183E480939E0194
:104F10000E949804ECDD78940895CF9340E050E02F
:104F200020E030E0019648175907A8F4F42FEE2747
:104F3000C8E020E030E0DF01A227B327220F331FB3
:104F4000B7FF02C026273727EE0FFF1FC15099F782
:104F50004F5F5F4FE8CFC901CF910895EF92FF9265
:104F60000F931F93CF93DF937B018C01E80EF91E03
:104F7000CFEFDFEF0E151F0569F0F80181918F016A
:104F80008D2761E270E190E0C8DFDC2FCC27C827D5
:104F9000D927F0CFCE01DF91CF911F910F91FF90D4
:104FA000EF90089528E030E087FF03C0880F862740
:104FB00001C0880F2150310921153105A9F7089545
:104FC000FF920F931F93CF93DF93EC018B01F12C92
:104FD0008FEF2F2D30E02017310748F4FE01E20F4C
:104FE000F31F908167E08927DDDFF394F2CFDF9133
:104FF000CF911F910F91FF90089520E030E048E499
:1050000053E40E94CA320E942D330E94A531CB0185
:10501000089520E030E040E853E40E94CA320E9444
:105020002D330E94A531CB0108954F925F926F926C
:105030007F92AF92BF92CF92DF92EF92FF920F9347
:105040001F93CF93DF93CDB7DEB728970FB6F894B1
:10505000DEBF0FBECDBF69837A838B839C8329011A
:105060003A01ED82FE820F831887C601B501A801BF
:1050700097010E94D4306B017C0120E030E0A9014F
:105080000E943931882341F129813A814B815C8129
:10509000C301B2010E94D4302B013C012D813E811D
:1050A0004F815885698D7A8D8B8D9C8D0E94D4306F
:1050B0009B01AC01C301B2010E94CA32A701960153
:1050C0000E943D319B01AC0169817A818B819C8179
:1050D0000E94D5302B013C01C301B20128960FB6C6
:1050E000F894DEBF0FBECDBFDF91CF911F910F911E
:1050F000FF90EF90DF90CF90BF90AF907F906F9038
:105100005F904F9008950F931F936130710571F573
:1051100020913501E22FF0E0EE0FFF1FEA5CFE4F19
:105120009183808381E0820F803119F08093350173
:1051300002C010923501E6E3F1E060E070E0CB01DF
:1051400001911191222717FD2095322F600F711FB9
:10515000821F931F21E0E635F20791F720E130E04E
:1051600040E050E00E94B033C90102C080E090E00E
:105170001F910F910895CF93DF938091D7008160A5
:105180008093D700E7D70E9447020E94A2060E94A0
:1051900007030E94DE070E94B9060E9410160E94B3
:1051A000B3150E94F00760E070E0CB010E94CE02D0
:1051B00090937F0180937E0160E070E080EF91E446
:1051C00028DFEC0160E070E080E292E422DFBE01C3
:1051D00092DC60E070E0CB0110DF9093910180934E
:1051E00090011092BC02E6E3F1E01192119281E08D
:1051F000E635F807D1F70E946F131092C50269EEE9
:1052000073E080EC93E035D280EC93E077D783E3D2
:1052100090E09093CD008093CC008BED93E000D193
:105220000E94AE040E948C160E943F160E94A11696
:105230000E94AD010E9474070E941413DF91CF9168
:105240000BC780917001811109C070DC0E948C161F
:105250000E943F160E94A1160C94331D0895BF9220
:10526000CF92DF92EF92FF920F931F93CF93DF9332
:10527000CDB7DEB7CB5FD1090FB6F894DEBF0FBE56
:10528000CDBF8E010F5F1F4FF12C68018F2D0E9443
:105290005101F80181938F01F394F6EFFF12F6CFDD
:1052A00062E070E0CE0102968BDEB82E61EF70E016
:1052B000CE01069653DE7C010E94BE058E01095088
:1052C0001F4F9E0127503F4FAE0146505F4FBE011A
:1052D00065507F4FC6010E946A0680917001882345
:1052E00009F440C0C550DF4F8881CB5FD040B81271
:1052F0002BC0C950DF4F28813981C75FD040E216EB
:10530000F30611F5C650DF4F8881CA5FD040863062
:10531000D9F410927001109276010E94BE05C60168
:105320000E94570980910E0290910F0220916A020B
:1053300030916B02821B930B02971CF081E08093EB
:1053400076010E94A1160EC0C650DF4F8881CA5F49
:10535000D040863021F081E08093760103C081E067
:1053600080937001C550DF4F0FB6F894DEBF0FBEBB
:10537000CDBFDF91CF911F910F91FF90EF90DF9004
:10538000CF90BF900895292F33272230310559F04F
:105390002330310569F021303105F9F482E190E0E4
:1053A0002EE531E01EC08EE390E020E231E019C02E
:1053B00099278130910541F08230910541F0892B88
:1053C00061F4ECE1F1E005C0E2E0F1E002C0E8EEFA
:1053D000F0E0849190E09F0104C080E090E020E044
:1053E00030E0FA013183208308959091C80095FF41
:1053F000FCCF8093CE0080E090E008958091C800BB
:1054000087FF08C08091C80087FF07C08091CE0049
:1054100090E008958EEF9FEF08958FEF9FEF08952E
:10542000FC01009759F487EF93E090931304809365
:1054300012049093150480931404FC018EE0DF01A4
:105440001D928A95E9F783E0838385EF99E291873E
:1054500080878EEF99E2938782870895CF93DF93B9
:10546000EC01FC0170968BE0DF011D928A95E9F753
:1054700082E08C83898783E08E8761E0CE0101968C
:10548000B4D2882361F061E0CE010696AED28823C3
:1054900031F061E0CE010B96DF91CF91A6C280E0A2
:1054A000DF91CF910895CF93C62F20910904243026
:1054B000F1F4FC014489558966897789452B462B8F
:1054C000472BA9F081818F708093E9008091E800DB
:1054D00085FF04C0C093F10080E00AC08091E8001D
:1054E0008E778093E800DFD28823A1F301C082E0A9
:1054F000CF910895FB01682F84859585D4DF21E045
:1055000030E0811102C020E030E088279927821B1B
:10551000930B089520910904243041F5FC0144893E
:10552000558966897789452B462B472BF9F0818170
:105530008F708093E9002091F3008091F20090E059
:10554000922B892B89F09091E8008091E8008E776A
:105550008093E80095FD08C0A6D2811108C0809113
:10556000E8008E778093E80080E0089582E0089557
:1055700020910904243089F4FC0144895589668905
:105580007789452B462B472B41F021812F702093A3
:10559000E9002091E80020FDBDCF08952091090485
:1055A000243019F080E090E00895FC014489558989
:1055B00066897789452B462B472BA1F386818F700F
:1055C0008093E9008091E80082FFECCF2091F30006
:1055D0008091F20090E0922B009731F42091E80046
:1055E0002B772093E80008952091F3008091F2003A
:1055F00090E0922B089520910904243019F08FEF48
:105600009FEF0895FC014489558966897789452B68
:10561000462B472BA1F386818F708093E900809100
:10562000E80082FFECCF2091F3008091F20090E03F
:10563000922B892B21F02091F10030E002C02FEF56
:105640003FEF4091F3008091F20090E0942B892B82
:1056500029F48091E8008B778093E800C9010895D0
:10566000FC0184859585C7DF97FF02C08EEF9FEF11
:105670000895FB012EE0DB011D922A95E9F723E056
:1056800023832AE73AE23187208720E33BE233870E
:1056900022879587848708950895CF93DF93EC013F
:1056A0008091E80083FFA6C0888190E020910E04DD
:1056B00030910F042817390709F09CC080910B0422
:1056C000813261F020F4803209F43EC093C082320E
:1056D00009F46CC0833209F47DC08CC080910A0447
:1056E000813A09F087C08091E800877F8093E800C5
:1056F0008091E80080FFFCCF4C895D896E897F89AD
:105700004093F100BB27A72F962F852F8093F100A0
:10571000CB01AA27BB278093F100472F5527662787
:1057200077274093F100888D8093F100898D8093D5
:10573000F1008A8D8093F1008091E8008E7780934C
:10574000E800DF91CF918EC180910A04813209F087
:1057500051C08091E800877F8093E8008091E80045
:1057600082FD05C0809109048111F8CF43C03091BA
:10577000F1002091F1009091F1008091F1003C8BBB
:105780002D8B9E8B8F8B8091F100888F8091F10003
:10579000898F8091F1008A8F8091E8008B778093C8
:1057A000E80060D1CE01DF91CF91A8C480910A04B6
:1057B000813201F58091E800877F8093E80052D123
:1057C00080910C0490910D04998B888BCE01DF9110
:1057D000CF9162CF80910A04813261F48091E80018
:1057E000877F8093E8003ED160910C04CE01DF9169
:1057F000CF9152CFDF91CF91089520911004309135
:1058000011042617370748F06115710539F4209106
:10581000E8002E772093E80001C0B901FC0120E0E8
:1058200061157105B9F180910904882309F440C01C
:10583000853009F43FC08091E80083FD3DC0809130
:10584000E80082FF06C08091E80082FF26C080E069
:1058500008958091E80080FFE3CF2091F3008091CC
:10586000F20090E0922B6115710551F0883091059E
:1058700038F421912093F100615071090196F3CF22
:1058800021E0089709F020E08091E8008E7780936E
:10589000E800C6CF2111C7CFD6CF80910904882355
:1058A00039F0853039F08091E80083FFCCCF04C017
:1058B00082E0089583E0089581E008952091100426
:1058C000309111042617370748F06115710539F436
:1058D0002091E8002E772093E80001C0B901FC0177
:1058E00020E061157105C1F180910904882309F454
:1058F00041C0853009F440C08091E80083FD3EC07E
:105900008091E80082FF06C08091E80082FF27C0F6
:1059100080E008958091E80080FFE3CF2091F300BC
:105920008091F20090E0922B6115710559F088305A
:10593000910540F424912093F10031966150710952
:105940000196F2CF21E0089709F020E08091E8006D
:105950008E778093E800C5CF2111C6CFD5CF809137
:105960000904882339F0853039F08091E80083FFFD
:10597000CBCF04C082E0089583E0089581E00895CC
:10598000982F973058F59093E900981739F0709157
:10599000EC002091ED005091F00003C0242F762FF1
:1059A00050E021FF19C03091EB003E7F3093EB00B7
:1059B0003091ED003D7F3093ED003091EB00316090
:1059C0003093EB007093EC002093ED005093F000C7
:1059D0002091EE0027FF07C09F5FD3CF8F70809389
:1059E000E90081E0089580E008950F931F93CF931D
:1059F000DF93062FEC0110E0101771F198819923C5
:105A000041F12C81E981FA817B81892F8F70873068
:105A100010F080E022C0223010F056E001C052E0C9
:105A200028E030E040E02E173F0720F44F5F220FC0
:105A3000331FF9CF4295407F452B692F661F66279C
:105A4000661F90E4799F90011124622B99DF8823CF
:105A500001F31F5F2596D0CF81E0DF91CF911F9199
:105A60000F91089580910A0487FD05C08091E80098
:105A700080FF0EC012C08091E80082FD05C08091B9
:105A800009048111F8CF08958091E8008B7708C050
:105A9000809109048111EACF08958091E8008E7702
:105AA0008093E80008958091E4009091E50045E638
:105AB0002091EC0020FF21C02091E80020FD21C0B2
:105AC00020910904222389F0253089F02091EB00F0
:105AD00025FD0FC02091E4003091E500281739071B
